:1000000000308A0036280000831A0A28A400030E54
:10001000A5000F288312A400030EA500A5140A084A
:10002000AB008A018313A40E0408A6002008A700D1
:100030002108A8002208A9002308AA0083128B1E09
:1000400023280B193C28260884002708A00028082C
:10005000A1002908A2002A08A3002B088A00250E67
:1000600083008312240EA51883160900FF2383162C
:10007000900000308A005528AC0A2D083C3C031D36
:100080004328AE0AAD012C08773C03185028AD0A6E
:10009000AC0101308506AF080319502804308506ED
:1000A000833081000B118A112328AC01AD01AE0110
:1000B000AF01073099001F3083052030831685007B
:1000C0008312850183160108C03905388100073085
:1000D0008312990083160508850002308312A00060
:1000E000A00B70287328000019088C118330810040
:1000F000C0308B048B168316811783122D080A3C9F
:10010000031905162E08463C03190512851E8C2876
:100110005930AE003730AD002E08593C031D9628EB
:100120002D08373C031D96280130AF002E085A3C9D
:10013000031DA028AD08031DA028AF0105118514DB
:100140002E085A3C031DAE282D08053C031DAE2881
:100150008510AF010511AD010516AE017E286300C3
:02400E00943FDD
:00000001FF
;PIC12F629
;CRC=B874  CREATED="05-abr-23 21:31"
